{"abi":[{"type":"constructor","inputs":[],"stateMutability":"nonpayable"},{"type":"function","name":"approve","inputs":[{"name":"to","type":"address","internalType":"address"},{"name":"tokenId","type":"uint256","internalType":"uint256"}],"outputs":[],"stateMutability":"nonpayable"},{"type":"function","name":"balanceOf","inputs":[{"name":"owner","type":"address","internalType":"address"}],"outputs":[{"name":"","type":"uint256","internalType":"uint256"}],"stateMutability":"view"},{"type":"function","name":"createforestRecord","inputs":[{"name":"imageID","type":"string","internalType":"string"},{"name":"areaName","type":"string","internalType":"string"},{"name":"periodCurrent","type":"string","internalType":"string"},{"name":"periodPrevious","type":"string","internalType":"string"},{"name":"coordinates","type":"string","internalType":"string"},{"name":"deforestationArea","type":"uint256","internalType":"uint256"},{"name":"preservedArea","type":"uint256","internalType":"uint256"}],"outputs":[{"name":"","type":"uint256","internalType":"uint256"}],"stateMutability":"nonpayable"},{"type":"function","name":"forestRecords","inputs":[{"name":"","type":"uint256","internalType":"uint256"}],"outputs":[{"name":"imageID","type":"string","internalType":"string"},{"name":"areaName","type":"string","internalType":"string"},{"name":"periodCurrent","type":"string","internalType":"string"},{"name":"periodPrevious","type":"string","internalType":"string"},{"name":"coordinates","type":"string","internalType":"string"},{"name":"deforestationArea","type":"uint256","internalType":"uint256"},{"name":"preservedArea","type":"uint256","internalType":"uint256"},{"name":"timestamp","type":"uint256","internalType":"uint256"}],"stateMutability":"view"},{"type":"function","name":"getApproved","inputs":[{"name":"tokenId","type":"uint256","internalType":"uint256"}],"outputs":[{"name":"","type":"address","internalType":"address"}],"stateMutability":"view"},{"type":"function","name":"getforestRecord","inputs":[{"name":"tokenId","type":"uint256","internalType":"uint256"}],"outputs":[{"name":"","type":"tuple","internalType":"struct forestMonitor.forestRecord","components":[{"name":"imageID","type":"string","internalType":"string"},{"name":"areaName","type":"string","internalType":"string"},{"name":"periodCurrent","type":"string","internalType":"string"},{"name":"periodPrevious","type":"string","internalType":"string"},{"name":"coordinates","type":"string","internalType":"string"},{"name":"deforestationArea","type":"uint256","internalType":"uint256"},{"name":"preservedArea","type":"uint256","internalType":"uint256"},{"name":"timestamp","type":"uint256","internalType":"uint256"}]}],"stateMutability":"view"},{"type":"function","name":"isApprovedForAll","inputs":[{"name":"owner","type":"address","internalType":"address"},{"name":"operator","type":"address","internalType":"address"}],"outputs":[{"name":"","type":"bool","internalType":"bool"}],"stateMutability":"view"},{"type":"function","name":"name","inputs":[],"outputs":[{"name":"","type":"string","internalType":"string"}],"stateMutability":"view"},{"type":"function","name":"ownerOf","inputs":[{"name":"tokenId","type":"uint256","internalType":"uint256"}],"outputs":[{"name":"","type":"address","internalType":"address"}],"stateMutability":"view"},{"type":"function","name":"safeTransferFrom","inputs":[{"name":"from","type":"address","internalType":"address"},{"name":"to","type":"address","internalType":"address"},{"name":"tokenId","type":"uint256","internalType":"uint256"}],"outputs":[],"stateMutability":"nonpayable"},{"type":"function","name":"safeTransferFrom","inputs":[{"name":"from","type":"address","internalType":"address"},{"name":"to","type":"address","internalType":"address"},{"name":"tokenId","type":"uint256","internalType":"uint256"},{"name":"data","type":"bytes","internalType":"bytes"}],"outputs":[],"stateMutability":"nonpayable"},{"type":"function","name":"setApprovalForAll","inputs":[{"name":"operator","type":"address","internalType":"address"},{"name":"approved","type":"bool","internalType":"bool"}],"outputs":[],"stateMutability":"nonpayable"},{"type":"function","name":"supportsInterface","inputs":[{"name":"interfaceId","type":"bytes4","internalType":"bytes4"}],"outputs":[{"name":"","type":"bool","internalType":"bool"}],"stateMutability":"view"},{"type":"function","name":"symbol","inputs":[],"outputs":[{"name":"","type":"string","internalType":"string"}],"stateMutability":"view"},{"type":"function","name":"tokenURI","inputs":[{"name":"tokenId","type":"uint256","internalType":"uint256"}],"outputs":[{"name":"","type":"string","internalType":"string"}],"stateMutability":"view"},{"type":"function","name":"transferFrom","inputs":[{"name":"from","type":"address","internalType":"address"},{"name":"to","type":"address","internalType":"address"},{"name":"tokenId","type":"uint256","internalType":"uint256"}],"outputs":[],"stateMutability":"nonpayable"},{"type":"event","name":"Approval","inputs":[{"name":"owner","type":"address","indexed":true,"internalType":"address"},{"name":"approved","type":"address","indexed":true,"internalType":"address"},{"name":"tokenId","type":"uint256","indexed":true,"internalType":"uint256"}],"anonymous":false},{"type":"event","name":"ApprovalForAll","inputs":[{"name":"owner","type":"address","indexed":true,"internalType":"address"},{"name":"operator","type":"address","indexed":true,"internalType":"address"},{"name":"approved","type":"bool","indexed":false,"internalType":"bool"}],"anonymous":false},{"type":"event","name":"Transfer","inputs":[{"name":"from","type":"address","indexed":true,"internalType":"address"},{"name":"to","type":"address","indexed":true,"internalType":"address"},{"name":"tokenId","type":"uint256","indexed":true,"internalType":"uint256"}],"anonymous":false},{"type":"error","name":"ERC721IncorrectOwner","inputs":[{"name":"sender","type":"address","internalType":"address"},{"name":"tokenId","type":"uint256","internalType":"uint256"},{"name":"owner","type":"address","internalType":"address"}]},{"type":"error","name":"ERC721InsufficientApproval","inputs":[{"name":"operator","type":"address","internalType":"address"},{"name":"tokenId","type":"uint256","internalType":"uint256"}]},{"type":"error","name":"ERC721InvalidApprover","inputs":[{"name":"approver","type":"address","internalType":"address"}]},{"type":"error","name":"ERC721InvalidOperator","inputs":[{"name":"operator","type":"address","internalType":"address"}]},{"type":"error","name":"ERC721InvalidOwner","inputs":[{"name":"owner","type":"address","internalType":"address"}]},{"type":"error","name":"ERC721InvalidReceiver","inputs":[{"name":"receiver","type":"address","internalType":"address"}]},{"type":"error","name":"ERC721InvalidSender","inputs":[{"name":"sender","type":"address","internalType":"address"}]},{"type":"error","name":"ERC721NonexistentToken","inputs":[{"name":"tokenId","type":"uint256","internalType":"uint256"}]}],"bytecode":{"object":"0x60806040526001600655348015610014575f5ffd5b506040518060400160405280600d81526020017f666f726573744d6f6e69746f72000000000000000000000000000000000000008152506040518060400160405280600d81526020017f4d6f6e69746f72616d656e746f00000000000000000000000000000000000000815250815f908161008f91906102e4565b50806001908161009f91906102e4565b5050506103b3565b5f81519050919050565b7f4e487b71000000000000000000000000000000000000000000000000000000005f52604160045260245ffd5b7f4e487b71000000000000000000000000000000000000000000000000000000005f52602260045260245ffd5b5f600282049050600182168061012257607f821691505b602082108103610135576101346100de565b5b50919050565b5f819050815f5260205f209050919050565b5f6020601f8301049050919050565b5f82821b905092915050565b5f600883026101977fffffffffffffffffffffffffffffffffffffffffffffffffffffffffffffffff8261015c565b6101a1868361015c565b95508019841693508086168417925050509392505050565b5f819050919050565b5f819050919050565b5f6101e56101e06101db846101b9565b6101c2565b6101b9565b9050919050565b5f819050919050565b6101fe836101cb565b61021261020a826101ec565b848454610168565b825550505050565b5f5f905090565b61022961021a565b6102348184846101f5565b505050565b5b818110156102575761024c5f82610221565b60018101905061023a565b5050565b601f82111561029c5761026d8161013b565b6102768461014d565b81016020851015610285578190505b6102996102918561014d565b830182610239565b50505b505050565b5f82821c905092915050565b5f6102bc5f19846008026102a1565b1980831691505092915050565b5f6102d483836102ad565b9150826002028217905092915050565b6102ed826100a7565b67ffffffffffffffff811115610306576103056100b1565b5b610310825461010b565b61031b82828561025b565b5f60209050601f83116001811461034c575f841561033a578287015190505b61034485826102c9565b8655506103ab565b601f19841661035a8661013b565b5f5b828110156103815784890151825560018201915060208501945060208101905061035c565b8683101561039e578489015161039a601f8916826102ad565b8355505b6001600288020188555050505b505050505050565b612b5b806103c05f395ff3fe608060405234801561000f575f5ffd5b50600436106100fd575f3560e01c8063654789e811610095578063a22cb46511610064578063a22cb465146102e8578063b88d4fde14610304578063c87b56dd14610320578063e985e9c514610350576100fd565b8063654789e81461023357806370a08231146102635780638a86152b1461029357806395d89b41146102ca576100fd565b8063095ea7b3116100d1578063095ea7b3146101af57806323b872dd146101cb57806342842e0e146101e75780636352211e14610203576100fd565b8062c331fa1461010157806301ffc9a71461013157806306fdde0314610161578063081812fc1461017f575b5f5ffd5b61011b60048036038101906101169190611d5b565b610380565b6040516101289190611ece565b60405180910390f35b61014b60048036038101906101469190611f43565b6106a3565b6040516101589190611f88565b60405180910390f35b610169610784565b6040516101769190611fe9565b60405180910390f35b61019960048036038101906101949190611d5b565b610813565b6040516101a69190612048565b60405180910390f35b6101c960048036038101906101c4919061208b565b61082e565b005b6101e560048036038101906101e091906120c9565b610844565b005b61020160048036038101906101fc91906120c9565b610943565b005b61021d60048036038101906102189190611d5b565b610962565b60405161022a9190612048565b60405180910390f35b61024d60048036038101906102489190612245565b610973565b60405161025a919061237d565b60405180910390f35b61027d60048036038101906102789190612396565b610a7e565b60405161028a919061237d565b60405180910390f35b6102ad60048036038101906102a89190611d5b565b610b34565b6040516102c19897969594939291906123c1565b60405180910390f35b6102d2610e16565b6040516102df9190611fe9565b60405180910390f35b61030260048036038101906102fd919061248a565b610ea6565b005b61031e60048036038101906103199190612566565b610ebc565b005b61033a60048036038101906103359190611d5b565b610ee1565b6040516103479190611fe9565b60405180910390f35b61036a600480360381019061036591906125e6565b610f47565b6040516103779190611f88565b60405180910390f35b610388611cd5565b61039182610962565b5060075f8381526020019081526020015f20604051806101000160405290815f820180546103be90612651565b80601f01602080910402602001604051908101604052809291908181526020018280546103ea90612651565b80156104355780601f1061040c57610100808354040283529160200191610435565b820191905f5260205f20905b81548152906001019060200180831161041857829003601f168201915b5050505050815260200160018201805461044e90612651565b80601f016020809104026020016040519081016040528092919081815260200182805461047a90612651565b80156104c55780601f1061049c576101008083540402835291602001916104c5565b820191905f5260205f20905b8154815290600101906020018083116104a857829003601f168201915b505050505081526020016002820180546104de90612651565b80601f016020809104026020016040519081016040528092919081815260200182805461050a90612651565b80156105555780601f1061052c57610100808354040283529160200191610555565b820191905f5260205f20905b81548152906001019060200180831161053857829003601f168201915b5050505050815260200160038201805461056e90612651565b80601f016020809104026020016040519081016040528092919081815260200182805461059a90612651565b80156105e55780601f106105bc576101008083540402835291602001916105e5565b820191905f5260205f20905b8154815290600101906020018083116105c857829003601f168201915b505050505081526020016004820180546105fe90612651565b80601f016020809104026020016040519081016040528092919081815260200182805461062a90612651565b80156106755780601f1061064c57610100808354040283529160200191610675565b820191905f5260205f20905b81548152906001019060200180831161065857829003601f168201915b5050505050815260200160058201548152602001600682015481526020016007820154815250509050919050565b5f7f80ac58cd000000000000000000000000000000000000000000000000000000007bffffffffffffffffffffffffffffffffffffffffffffffffffffffff1916827bffffffffffffffffffffffffffffffffffffffffffffffffffffffff1916148061076d57507f5b5e139f000000000000000000000000000000000000000000000000000000007bffffffffffffffffffffffffffffffffffffffffffffffffffffffff1916827bffffffffffffffffffffffffffffffffffffffffffffffffffffffff1916145b8061077d575061077c82610fd5565b5b9050919050565b60605f805461079290612651565b80601f01602080910402602001604051908101604052809291908181526020018280546107be90612651565b80156108095780601f106107e057610100808354040283529160200191610809565b820191905f5260205f20905b8154815290600101906020018083116107ec57829003601f168201915b5050505050905090565b5f61081d8261103e565b50610827826110c4565b9050919050565b610840828261083b6110fd565b611104565b5050565b5f73ffffffffffffffffffffffffffffffffffffffff168273ffffffffffffffffffffffffffffffffffffffff16036108b4575f6040517f64a0ae920000000000000000000000000000000000000000000000000000000081526004016108ab9190612048565b60405180910390fd5b5f6108c783836108c26110fd565b611116565b90508373ffffffffffffffffffffffffffffffffffffffff168173ffffffffffffffffffffffffffffffffffffffff161461093d578382826040517f64283d7b00000000000000000000000000000000000000000000000000000000815260040161093493929190612681565b60405180910390fd5b50505050565b61095d83838360405180602001604052805f815250610ebc565b505050565b5f61096c8261103e565b9050919050565b5f5f60065f815480929190610987906126e3565b9190505590506109973382611321565b6040518061010001604052808a81526020018981526020018881526020018781526020018681526020018581526020018481526020014281525060075f8381526020019081526020015f205f820151815f0190816109f591906128ca565b506020820151816001019081610a0b91906128ca565b506040820151816002019081610a2191906128ca565b506060820151816003019081610a3791906128ca565b506080820151816004019081610a4d91906128ca565b5060a0820151816005015560c0820151816006015560e0820151816007015590505080915050979650505050505050565b5f5f73ffffffffffffffffffffffffffffffffffffffff168273ffffffffffffffffffffffffffffffffffffffff1603610aef575f6040517f89c62b64000000000000000000000000000000000000000000000000000000008152600401610ae69190612048565b60405180910390fd5b60035f8373ffffffffffffffffffffffffffffffffffffffff1673ffffffffffffffffffffffffffffffffffffffff1681526020019081526020015f20549050919050565b6007602052805f5260405f205f91509050805f018054610b5390612651565b80601f0160208091040260200160405190810160405280929190818152602001828054610b7f90612651565b8015610bca5780601f10610ba157610100808354040283529160200191610bca565b820191905f5260205f20905b815481529060010190602001808311610bad57829003601f168201915b505050505090806001018054610bdf90612651565b80601f0160208091040260200160405190810160405280929190818152602001828054610c0b90612651565b8015610c565780601f10610c2d57610100808354040283529160200191610c56565b820191905f5260205f20905b815481529060010190602001808311610c3957829003601f168201915b505050505090806002018054610c6b90612651565b80601f0160208091040260200160405190810160405280929190818152602001828054610c9790612651565b8015610ce25780601f10610cb957610100808354040283529160200191610ce2565b820191905f5260205f20905b815481529060010190602001808311610cc557829003601f168201915b505050505090806003018054610cf790612651565b80601f0160208091040260200160405190810160405280929190818152602001828054610d2390612651565b8015610d6e5780601f10610d4557610100808354040283529160200191610d6e565b820191905f5260205f20905b815481529060010190602001808311610d5157829003601f168201915b505050505090806004018054610d8390612651565b80601f0160208091040260200160405190810160405280929190818152602001828054610daf90612651565b8015610dfa5780601f10610dd157610100808354040283529160200191610dfa565b820191905f5260205f20905b815481529060010190602001808311610ddd57829003601f168201915b5050505050908060050154908060060154908060070154905088565b606060018054610e2590612651565b80601f0160208091040260200160405190810160405280929190818152602001828054610e5190612651565b8015610e9c5780601f10610e7357610100808354040283529160200191610e9c565b820191905f5260205f20905b815481529060010190602001808311610e7f57829003601f168201915b5050505050905090565b610eb8610eb16110fd565b8383611414565b5050565b610ec7848484610844565b610edb610ed26110fd565b8585858561157d565b50505050565b6060610eec8261103e565b505f610ef6611729565b90505f815111610f145760405180602001604052805f815250610f3f565b80610f1e8461173f565b604051602001610f2f9291906129d3565b6040516020818303038152906040525b915050919050565b5f60055f8473ffffffffffffffffffffffffffffffffffffffff1673ffffffffffffffffffffffffffffffffffffffff1681526020019081526020015f205f8373ffffffffffffffffffffffffffffffffffffffff1673ffffffffffffffffffffffffffffffffffffffff1681526020019081526020015f205f9054906101000a900460ff16905092915050565b5f7f01ffc9a7000000000000000000000000000000000000000000000000000000007bffffffffffffffffffffffffffffffffffffffffffffffffffffffff1916827bffffffffffffffffffffffffffffffffffffffffffffffffffffffff1916149050919050565b5f5f61104983611809565b90505f73ffffffffffffffffffffffffffffffffffffffff168173ffffffffffffffffffffffffffffffffffffffff16036110bb57826040517f7e2732890000000000000000000000000000000000000000000000000000000081526004016110b2919061237d565b60405180910390fd5b80915050919050565b5f60045f8381526020019081526020015f205f9054906101000a900473ffffffffffffffffffffffffffffffffffffffff169050919050565b5f33905090565b6111118383836001611842565b505050565b5f5f61112184611809565b90505f73ffffffffffffffffffffffffffffffffffffffff168373ffffffffffffffffffffffffffffffffffffffff161461116257611161818486611a01565b5b5f73ffffffffffffffffffffffffffffffffffffffff168173ffffffffffffffffffffffffffffffffffffffff16146111ed576111a15f855f5f611842565b600160035f8373ffffffffffffffffffffffffffffffffffffffff1673ffffffffffffffffffffffffffffffffffffffff1681526020019081526020015f205f82825403925050819055505b5f73ffffffffffffffffffffffffffffffffffffffff168573ffffffffffffffffffffffffffffffffffffffff161461126c57600160035f8773ffffffffffffffffffffffffffffffffffffffff1673ffffffffffffffffffffffffffffffffffffffff1681526020019081526020015f205f82825401925050819055505b8460025f8681526020019081526020015f205f6101000a81548173ffffffffffffffffffffffffffffffffffffffff021916908373ffffffffffffffffffffffffffffffffffffffff160217905550838573ffffffffffffffffffffffffffffffffffffffff168273ffffffffffffffffffffffffffffffffffffffff167fddf252ad1be2c89b69c2b068fc378daa952ba7f163c4a11628f55a4df523b3ef60405160405180910390a4809150509392505050565b5f73ffffffffffffffffffffffffffffffffffffffff168273ffffffffffffffffffffffffffffffffffffffff1603611391575f6040517f64a0ae920000000000000000000000000000000000000000000000000000000081526004016113889190612048565b60405180910390fd5b5f61139d83835f611116565b90505f73ffffffffffffffffffffffffffffffffffffffff168173ffffffffffffffffffffffffffffffffffffffff161461140f575f6040517f73c6ac6e0000000000000000000000000000000000000000000000000000000081526004016114069190612048565b60405180910390fd5b505050565b5f73ffffffffffffffffffffffffffffffffffffffff168273ffffffffffffffffffffffffffffffffffffffff160361148457816040517f5b08ba1800000000000000000000000000000000000000000000000000000000815260040161147b9190612048565b60405180910390fd5b8060055f8573ffffffffffffffffffffffffffffffffffffffff1673ffffffffffffffffffffffffffffffffffffffff1681526020019081526020015f205f8473ffffffffffffffffffffffffffffffffffffffff1673ffffffffffffffffffffffffffffffffffffffff1681526020019081526020015f205f6101000a81548160ff0219169083151502179055508173ffffffffffffffffffffffffffffffffffffffff168373ffffffffffffffffffffffffffffffffffffffff167f17307eab39ab6107e8899845ad3d59bd9653f200f220920489ca2b5937696c31836040516115709190611f88565b60405180910390a3505050565b5f8373ffffffffffffffffffffffffffffffffffffffff163b1115611722578273ffffffffffffffffffffffffffffffffffffffff1663150b7a02868685856040518563ffffffff1660e01b81526004016115db9493929190612a48565b6020604051808303815f875af192505050801561161657506040513d601f19601f820116820180604052508101906116139190612aa6565b60015b611697573d805f8114611644576040519150601f19603f3d011682016040523d82523d5f602084013e611649565b606091505b505f81510361168f57836040517f64a0ae920000000000000000000000000000000000000000000000000000000081526004016116869190612048565b60405180910390fd5b805160208201fd5b63150b7a0260e01b7bffffffffffffffffffffffffffffffffffffffffffffffffffffffff1916817bffffffffffffffffffffffffffffffffffffffffffffffffffffffff19161461172057836040517f64a0ae920000000000000000000000000000000000000000000000000000000081526004016117179190612048565b60405180910390fd5b505b5050505050565b606060405180602001604052805f815250905090565b60605f600161174d84611ac4565b0190505f8167ffffffffffffffff81111561176b5761176a612121565b5b6040519080825280601f01601f19166020018201604052801561179d5781602001600182028036833780820191505090505b5090505f82602083010190505b6001156117fe578080600190039150507f3031323334353637383961626364656600000000000000000000000000000000600a86061a8153600a85816117f3576117f2612ad1565b5b0494505f85036117aa575b819350505050919050565b5f60025f8381526020019081526020015f205f9054906101000a900473ffffffffffffffffffffffffffffffffffffffff169050919050565b808061187a57505f73ffffffffffffffffffffffffffffffffffffffff168273ffffffffffffffffffffffffffffffffffffffff1614155b156119ac575f6118898461103e565b90505f73ffffffffffffffffffffffffffffffffffffffff168373ffffffffffffffffffffffffffffffffffffffff16141580156118f357508273ffffffffffffffffffffffffffffffffffffffff168173ffffffffffffffffffffffffffffffffffffffff1614155b801561190657506119048184610f47565b155b1561194857826040517fa9fbf51f00000000000000000000000000000000000000000000000000000000815260040161193f9190612048565b60405180910390fd5b81156119aa57838573ffffffffffffffffffffffffffffffffffffffff168273ffffffffffffffffffffffffffffffffffffffff167f8c5be1e5ebec7d5bd14f71427d1e84f3dd0314c0f7b2291e5b200ac8c7c3b92560405160405180910390a45b505b8360045f8581526020019081526020015f205f6101000a81548173ffffffffffffffffffffffffffffffffffffffff021916908373ffffffffffffffffffffffffffffffffffffffff16021790555050505050565b611a0c838383611c15565b611abf575f73ffffffffffffffffffffffffffffffffffffffff168373ffffffffffffffffffffffffffffffffffffffff1603611a8057806040517f7e273289000000000000000000000000000000000000000000000000000000008152600401611a77919061237d565b60405180910390fd5b81816040517f177e802f000000000000000000000000000000000000000000000000000000008152600401611ab6929190612afe565b60405180910390fd5b505050565b5f5f5f90507a184f03e93ff9f4daa797ed6e38ed64bf6a1f0100000000000000008310611b20577a184f03e93ff9f4daa797ed6e38ed64bf6a1f0100000000000000008381611b1657611b15612ad1565b5b0492506040810190505b6d04ee2d6d415b85acef81000000008310611b5d576d04ee2d6d415b85acef81000000008381611b5357611b52612ad1565b5b0492506020810190505b662386f26fc100008310611b8c57662386f26fc100008381611b8257611b81612ad1565b5b0492506010810190505b6305f5e1008310611bb5576305f5e1008381611bab57611baa612ad1565b5b0492506008810190505b6127108310611bda576127108381611bd057611bcf612ad1565b5b0492506004810190505b60648310611bfd5760648381611bf357611bf2612ad1565b5b0492506002810190505b600a8310611c0c576001810190505b80915050919050565b5f5f73ffffffffffffffffffffffffffffffffffffffff168373ffffffffffffffffffffffffffffffffffffffff1614158015611ccc57508273ffffffffffffffffffffffffffffffffffffffff168473ffffffffffffffffffffffffffffffffffffffff161480611c8d5750611c8c8484610f47565b5b80611ccb57508273ffffffffffffffffffffffffffffffffffffffff16611cb3836110c4565b73ffffffffffffffffffffffffffffffffffffffff16145b5b90509392505050565b60405180610100016040528060608152602001606081526020016060815260200160608152602001606081526020015f81526020015f81526020015f81525090565b5f604051905090565b5f5ffd5b5f5ffd5b5f819050919050565b611d3a81611d28565b8114611d44575f5ffd5b50565b5f81359050611d5581611d31565b92915050565b5f60208284031215611d7057611d6f611d20565b5b5f611d7d84828501611d47565b91505092915050565b5f81519050919050565b5f82825260208201905092915050565b8281835e5f83830152505050565b5f601f19601f8301169050919050565b5f611dc882611d86565b611dd28185611d90565b9350611de2818560208601611da0565b611deb81611dae565b840191505092915050565b611dff81611d28565b82525050565b5f61010083015f8301518482035f860152611e208282611dbe565b91505060208301518482036020860152611e3a8282611dbe565b91505060408301518482036040860152611e548282611dbe565b91505060608301518482036060860152611e6e8282611dbe565b91505060808301518482036080860152611e888282611dbe565b91505060a0830151611e9d60a0860182611df6565b5060c0830151611eb060c0860182611df6565b5060e0830151611ec360e0860182611df6565b508091505092915050565b5f6020820190508181035f830152611ee68184611e05565b905092915050565b5f7fffffffff0000000000000000000000000000000000000000000000000000000082169050919050565b611f2281611eee565b8114611f2c575f5ffd5b50565b5f81359050611f3d81611f19565b92915050565b5f60208284031215611f5857611f57611d20565b5b5f611f6584828501611f2f565b91505092915050565b5f8115159050919050565b611f8281611f6e565b82525050565b5f602082019050611f9b5f830184611f79565b92915050565b5f82825260208201905092915050565b5f611fbb82611d86565b611fc58185611fa1565b9350611fd5818560208601611da0565b611fde81611dae565b840191505092915050565b5f6020820190508181035f8301526120018184611fb1565b905092915050565b5f73ffffffffffffffffffffffffffffffffffffffff82169050919050565b5f61203282612009565b9050919050565b61204281612028565b82525050565b5f60208201905061205b5f830184612039565b92915050565b61206a81612028565b8114612074575f5ffd5b50565b5f8135905061208581612061565b92915050565b5f5f604083850312156120a1576120a0611d20565b5b5f6120ae85828601612077565b92505060206120bf85828601611d47565b9150509250929050565b5f5f5f606084860312156120e0576120df611d20565b5b5f6120ed86828701612077565b93505060206120fe86828701612077565b925050604061210f86828701611d47565b9150509250925092565b5f5ffd5b5f5ffd5b7f4e487b71000000000000000000000000000000000000000000000000000000005f52604160045260245ffd5b61215782611dae565b810181811067ffffffffffffffff8211171561217657612175612121565b5b80604052505050565b5f612188611d17565b9050612194828261214e565b919050565b5f67ffffffffffffffff8211156121b3576121b2612121565b5b6121bc82611dae565b9050602081019050919050565b828183375f83830152505050565b5f6121e96121e484612199565b61217f565b9050828152602081018484840111156122055761220461211d565b5b6122108482856121c9565b509392505050565b5f82601f83011261222c5761222b612119565b5b813561223c8482602086016121d7565b91505092915050565b5f5f5f5f5f5f5f60e0888a0312156122605761225f611d20565b5b5f88013567ffffffffffffffff81111561227d5761227c611d24565b5b6122898a828b01612218565b975050602088013567ffffffffffffffff8111156122aa576122a9611d24565b5b6122b68a828b01612218565b965050604088013567ffffffffffffffff8111156122d7576122d6611d24565b5b6122e38a828b01612218565b955050606088013567ffffffffffffffff81111561230457612303611d24565b5b6123108a828b01612218565b945050608088013567ffffffffffffffff81111561233157612330611d24565b5b61233d8a828b01612218565b93505060a061234e8a828b01611d47565b92505060c061235f8a828b01611d47565b91505092959891949750929550565b61237781611d28565b82525050565b5f6020820190506123905f83018461236e565b92915050565b5f602082840312156123ab576123aa611d20565b5b5f6123b884828501612077565b91505092915050565b5f610100820190508181035f8301526123da818b611fb1565b905081810360208301526123ee818a611fb1565b905081810360408301526124028189611fb1565b905081810360608301526124168188611fb1565b9050818103608083015261242a8187611fb1565b905061243960a083018661236e565b61244660c083018561236e565b61245360e083018461236e565b9998505050505050505050565b61246981611f6e565b8114612473575f5ffd5b50565b5f8135905061248481612460565b92915050565b5f5f604083850312156124a05761249f611d20565b5b5f6124ad85828601612077565b92505060206124be85828601612476565b9150509250929050565b5f67ffffffffffffffff8211156124e2576124e1612121565b5b6124eb82611dae565b9050602081019050919050565b5f61250a612505846124c8565b61217f565b9050828152602081018484840111156125265761252561211d565b5b6125318482856121c9565b509392505050565b5f82601f83011261254d5761254c612119565b5b813561255d8482602086016124f8565b91505092915050565b5f5f5f5f6080858703121561257e5761257d611d20565b5b5f61258b87828801612077565b945050602061259c87828801612077565b93505060406125ad87828801611d47565b925050606085013567ffffffffffffffff8111156125ce576125cd611d24565b5b6125da87828801612539565b91505092959194509250565b5f5f604083850312156125fc576125fb611d20565b5b5f61260985828601612077565b925050602061261a85828601612077565b9150509250929050565b7f4e487b71000000000000000000000000000000000000000000000000000000005f52602260045260245ffd5b5f600282049050600182168061266857607f821691505b60208210810361267b5761267a612624565b5b50919050565b5f6060820190506126945f830186612039565b6126a1602083018561236e565b6126ae6040830184612039565b949350505050565b7f4e487b71000000000000000000000000000000000000000000000000000000005f52601160045260245ffd5b5f6126ed82611d28565b91507fffffffffffffffffffffffffffffffffffffffffffffffffffffffffffffffff820361271f5761271e6126b6565b5b600182019050919050565b5f819050815f5260205f209050919050565b5f6020601f8301049050919050565b5f82821b905092915050565b5f600883026127867fffffffffffffffffffffffffffffffffffffffffffffffffffffffffffffffff8261274b565b612790868361274b565b95508019841693508086168417925050509392505050565b5f819050919050565b5f6127cb6127c66127c184611d28565b6127a8565b611d28565b9050919050565b5f819050919050565b6127e4836127b1565b6127f86127f0826127d2565b848454612757565b825550505050565b5f5f905090565b61280f612800565b61281a8184846127db565b505050565b5b8181101561283d576128325f82612807565b600181019050612820565b5050565b601f821115612882576128538161272a565b61285c8461273c565b8101602085101561286b578190505b61287f6128778561273c565b83018261281f565b50505b505050565b5f82821c905092915050565b5f6128a25f1984600802612887565b1980831691505092915050565b5f6128ba8383612893565b9150826002028217905092915050565b6128d382611d86565b67ffffffffffffffff8111156128ec576128eb612121565b5b6128f68254612651565b612901828285612841565b5f60209050601f831160018114612932575f8415612920578287015190505b61292a85826128af565b865550612991565b601f1984166129408661272a565b5f5b8281101561296757848901518255600182019150602085019450602081019050612942565b868310156129845784890151612980601f891682612893565b8355505b6001600288020188555050505b505050505050565b5f81905092915050565b5f6129ad82611d86565b6129b78185612999565b93506129c7818560208601611da0565b80840191505092915050565b5f6129de82856129a3565b91506129ea82846129a3565b91508190509392505050565b5f81519050919050565b5f82825260208201905092915050565b5f612a1a826129f6565b612a248185612a00565b9350612a34818560208601611da0565b612a3d81611dae565b840191505092915050565b5f608082019050612a5b5f830187612039565b612a686020830186612039565b612a75604083018561236e565b8181036060830152612a878184612a10565b905095945050505050565b5f81519050612aa081611f19565b92915050565b5f60208284031215612abb57612aba611d20565b5b5f612ac884828501612a92565b91505092915050565b7f4e487b71000000000000000000000000000000000000000000000000000000005f52601260045260245ffd5b5f604082019050612b115f830185612039565b612b1e602083018461236e565b939250505056fea2646970667358221220cd111c359de694d2e8ba76d8e03ffb3e47d618ae71a0c47564a2d66a1561b7f564736f6c634300081e0033","linkReferences":{}},"methodIdentifiers":{"approve(address,uint256)":"095ea7b3","balanceOf(address)":"70a08231","createforestRecord(string,string,string,string,string,uint256,uint256)":"654789e8","forestRecords(uint256)":"8a86152b","getApproved(uint256)":"081812fc","getforestRecord(uint256)":"00c331fa","isApprovedForAll(address,address)":"e985e9c5","name()":"06fdde03","ownerOf(uint256)":"6352211e","safeTransferFrom(address,address,uint256)":"42842e0e","safeTransferFrom(address,address,uint256,bytes)":"b88d4fde","setApprovalForAll(address,bool)":"a22cb465","supportsInterface(bytes4)":"01ffc9a7","symbol()":"95d89b41","tokenURI(uint256)":"c87b56dd","transferFrom(address,address,uint256)":"23b872dd"},"id":35}