{"abi":[{"type":"constructor","inputs":[{"name":"nftAddress","type":"address","internalType":"address"}],"stateMutability":"nonpayable"},{"type":"function","name":"carbonCreditNFT","inputs":[],"outputs":[{"name":"","type":"address","internalType":"contract IERC721"}],"stateMutability":"view"},{"type":"function","name":"isRetired","inputs":[{"name":"tokenId","type":"uint256","internalType":"uint256"}],"outputs":[{"name":"","type":"bool","internalType":"bool"}],"stateMutability":"view"},{"type":"function","name":"retireCredit","inputs":[{"name":"tokenId","type":"uint256","internalType":"uint256"}],"outputs":[],"stateMutability":"nonpayable"},{"type":"event","name":"CreditRetired","inputs":[{"name":"by","type":"address","indexed":true,"internalType":"address"},{"name":"tokenId","type":"uint256","indexed":true,"internalType":"uint256"},{"name":"timestamp","type":"uint256","indexed":false,"internalType":"uint256"}],"anonymous":false}],"bytecode":{"object":"0x608060405234801561000f575f5ffd5b506040516106c03803806106c0833981810160405281019061003191906100d4565b805f5f6101000a81548173ffffffffffffffffffffffffffffffffffffffff021916908373ffffffffffffffffffffffffffffffffffffffff160217905550506100ff565b5f5ffd5b5f73ffffffffffffffffffffffffffffffffffffffff82169050919050565b5f6100a38261007a565b9050919050565b6100b381610099565b81146100bd575f5ffd5b50565b5f815190506100ce816100aa565b92915050565b5f602082840312156100e9576100e8610076565b5b5f6100f6848285016100c0565b91505092915050565b6105b48061010c5f395ff3fe608060405234801561000f575f5ffd5b506004361061003e575f3560e01c80623f2d0214610042578063cf6ebee714610060578063eb899eeb14610090575b5f5ffd5b61004a6100ac565b6040516100579190610362565b60405180910390f35b61007a600480360381019061007591906103b2565b6100d0565b60405161008791906103f7565b60405180910390f35b6100aa60048036038101906100a591906103b2565b6100f6565b005b5f5f9054906101000a900473ffffffffffffffffffffffffffffffffffffffff1681565b5f60015f8381526020019081526020015f205f9054906101000a900460ff169050919050565b6100fe6102e1565b73ffffffffffffffffffffffffffffffffffffffff165f5f9054906101000a900473ffffffffffffffffffffffffffffffffffffffff1673ffffffffffffffffffffffffffffffffffffffff16636352211e836040518263ffffffff1660e01b815260040161016d919061041f565b602060405180830381865afa158015610188573d5f5f3e3d5ffd5b505050506040513d601f19601f820116820180604052508101906101ac9190610473565b73ffffffffffffffffffffffffffffffffffffffff1614610202576040517f08c379a00000000000000000000000000000000000000000000000000000000081526004016101f9906104f8565b60405180910390fd5b60015f8281526020019081526020015f205f9054906101000a900460ff1615610260576040517f08c379a000000000000000000000000000000000000000000000000000000000815260040161025790610560565b60405180910390fd5b6001805f8381526020019081526020015f205f6101000a81548160ff021916908315150217905550806102916102e1565b73ffffffffffffffffffffffffffffffffffffffff167ff6fd23586054caeba57b9a27efe99f82fd671f60e5cd40f9502b9f451d1a66eb426040516102d6919061041f565b60405180910390a350565b5f33905090565b5f73ffffffffffffffffffffffffffffffffffffffff82169050919050565b5f819050919050565b5f61032a610325610320846102e8565b610307565b6102e8565b9050919050565b5f61033b82610310565b9050919050565b5f61034c82610331565b9050919050565b61035c81610342565b82525050565b5f6020820190506103755f830184610353565b92915050565b5f5ffd5b5f819050919050565b6103918161037f565b811461039b575f5ffd5b50565b5f813590506103ac81610388565b92915050565b5f602082840312156103c7576103c661037b565b5b5f6103d48482850161039e565b91505092915050565b5f8115159050919050565b6103f1816103dd565b82525050565b5f60208201905061040a5f8301846103e8565b92915050565b6104198161037f565b82525050565b5f6020820190506104325f830184610410565b92915050565b5f610442826102e8565b9050919050565b61045281610438565b811461045c575f5ffd5b50565b5f8151905061046d81610449565b92915050565b5f602082840312156104885761048761037b565b5b5f6104958482850161045f565b91505092915050565b5f82825260208201905092915050565b7f566f6365206e656f20706f73737569206573746520746f6b656e2e00000000005f82015250565b5f6104e2601b8361049e565b91506104ed826104ae565b602082019050919050565b5f6020820190508181035f83015261050f816104d6565b9050919050565b7f45737465206372656469746f206a6120666f692061706f73656e7461646f2e005f82015250565b5f61054a601f8361049e565b915061055582610516565b602082019050919050565b5f6020820190508181035f8301526105778161053e565b905091905056fea26469706673582212209991ec8babce3a12f4c11b30e74ceebdfb8ad0de0b246d29d408f10cfda1bc7c64736f6c634300081e0033","linkReferences":{}},"methodIdentifiers":{"carbonCreditNFT()":"003f2d02","isRetired(uint256)":"cf6ebee7","retireCredit(uint256)":"eb899eeb"},"id":34}